{
  "_format": "hh-sol-artifact-1",
  "contractName": "LensMandalaNFT",
  "sourceName": "contracts/LensMandalaNFT.sol",
  "abi": [
    {
      "inputs": [],
      "stateMutability": "nonpayable",
      "type": "constructor"
    },
    {
      "anonymous": false,
      "inputs": [
        {
          "indexed": true,
          "internalType": "address",
          "name": "owner",
          "type": "address"
        },
        {
          "indexed": true,
          "internalType": "address",
          "name": "approved",
          "type": "address"
        },
        {
          "indexed": true,
          "internalType": "uint256",
          "name": "tokenId",
          "type": "uint256"
        }
      ],
      "name": "Approval",
      "type": "event"
    },
    {
      "anonymous": false,
      "inputs": [
        {
          "indexed": true,
          "internalType": "address",
          "name": "owner",
          "type": "address"
        },
        {
          "indexed": true,
          "internalType": "address",
          "name": "operator",
          "type": "address"
        },
        {
          "indexed": false,
          "internalType": "bool",
          "name": "approved",
          "type": "bool"
        }
      ],
      "name": "ApprovalForAll",
      "type": "event"
    },
    {
      "anonymous": false,
      "inputs": [
        {
          "indexed": true,
          "internalType": "address",
          "name": "previousOwner",
          "type": "address"
        },
        {
          "indexed": true,
          "internalType": "address",
          "name": "newOwner",
          "type": "address"
        }
      ],
      "name": "OwnershipTransferred",
      "type": "event"
    },
    {
      "anonymous": false,
      "inputs": [
        {
          "indexed": true,
          "internalType": "address",
          "name": "from",
          "type": "address"
        },
        {
          "indexed": true,
          "internalType": "address",
          "name": "to",
          "type": "address"
        },
        {
          "indexed": true,
          "internalType": "uint256",
          "name": "tokenId",
          "type": "uint256"
        }
      ],
      "name": "Transfer",
      "type": "event"
    },
    {
      "inputs": [
        {
          "internalType": "address",
          "name": "to",
          "type": "address"
        },
        {
          "internalType": "uint256",
          "name": "tokenId",
          "type": "uint256"
        }
      ],
      "name": "approve",
      "outputs": [],
      "stateMutability": "nonpayable",
      "type": "function"
    },
    {
      "inputs": [
        {
          "internalType": "address",
          "name": "owner",
          "type": "address"
        }
      ],
      "name": "balanceOf",
      "outputs": [
        {
          "internalType": "uint256",
          "name": "",
          "type": "uint256"
        }
      ],
      "stateMutability": "view",
      "type": "function"
    },
    {
      "inputs": [
        {
          "internalType": "address",
          "name": "to",
          "type": "address"
        }
      ],
      "name": "buy",
      "outputs": [],
      "stateMutability": "nonpayable",
      "type": "function"
    },
    {
      "inputs": [],
      "name": "buyPrice",
      "outputs": [
        {
          "internalType": "uint256",
          "name": "",
          "type": "uint256"
        }
      ],
      "stateMutability": "view",
      "type": "function"
    },
    {
      "inputs": [],
      "name": "buyTokenAddress",
      "outputs": [
        {
          "internalType": "address",
          "name": "",
          "type": "address"
        }
      ],
      "stateMutability": "view",
      "type": "function"
    },
    {
      "inputs": [],
      "name": "buyTokenRecipientAddress",
      "outputs": [
        {
          "internalType": "address",
          "name": "",
          "type": "address"
        }
      ],
      "stateMutability": "view",
      "type": "function"
    },
    {
      "inputs": [
        {
          "internalType": "uint256",
          "name": "tokenId",
          "type": "uint256"
        }
      ],
      "name": "getApproved",
      "outputs": [
        {
          "internalType": "address",
          "name": "",
          "type": "address"
        }
      ],
      "stateMutability": "view",
      "type": "function"
    },
    {
      "inputs": [
        {
          "internalType": "address",
          "name": "owner",
          "type": "address"
        },
        {
          "internalType": "address",
          "name": "operator",
          "type": "address"
        }
      ],
      "name": "isApprovedForAll",
      "outputs": [
        {
          "internalType": "bool",
          "name": "",
          "type": "bool"
        }
      ],
      "stateMutability": "view",
      "type": "function"
    },
    {
      "inputs": [],
      "name": "name",
      "outputs": [
        {
          "internalType": "string",
          "name": "",
          "type": "string"
        }
      ],
      "stateMutability": "view",
      "type": "function"
    },
    {
      "inputs": [],
      "name": "owner",
      "outputs": [
        {
          "internalType": "address",
          "name": "",
          "type": "address"
        }
      ],
      "stateMutability": "view",
      "type": "function"
    },
    {
      "inputs": [
        {
          "internalType": "uint256",
          "name": "tokenId",
          "type": "uint256"
        }
      ],
      "name": "ownerOf",
      "outputs": [
        {
          "internalType": "address",
          "name": "",
          "type": "address"
        }
      ],
      "stateMutability": "view",
      "type": "function"
    },
    {
      "inputs": [],
      "name": "renounceOwnership",
      "outputs": [],
      "stateMutability": "nonpayable",
      "type": "function"
    },
    {
      "inputs": [
        {
          "internalType": "address",
          "name": "to",
          "type": "address"
        },
        {
          "internalType": "string",
          "name": "uri",
          "type": "string"
        }
      ],
      "name": "safeMint",
      "outputs": [],
      "stateMutability": "nonpayable",
      "type": "function"
    },
    {
      "inputs": [
        {
          "internalType": "address",
          "name": "from",
          "type": "address"
        },
        {
          "internalType": "address",
          "name": "to",
          "type": "address"
        },
        {
          "internalType": "uint256",
          "name": "tokenId",
          "type": "uint256"
        }
      ],
      "name": "safeTransferFrom",
      "outputs": [],
      "stateMutability": "nonpayable",
      "type": "function"
    },
    {
      "inputs": [
        {
          "internalType": "address",
          "name": "from",
          "type": "address"
        },
        {
          "internalType": "address",
          "name": "to",
          "type": "address"
        },
        {
          "internalType": "uint256",
          "name": "tokenId",
          "type": "uint256"
        },
        {
          "internalType": "bytes",
          "name": "_data",
          "type": "bytes"
        }
      ],
      "name": "safeTransferFrom",
      "outputs": [],
      "stateMutability": "nonpayable",
      "type": "function"
    },
    {
      "inputs": [
        {
          "internalType": "address",
          "name": "operator",
          "type": "address"
        },
        {
          "internalType": "bool",
          "name": "approved",
          "type": "bool"
        }
      ],
      "name": "setApprovalForAll",
      "outputs": [],
      "stateMutability": "nonpayable",
      "type": "function"
    },
    {
      "inputs": [
        {
          "internalType": "address",
          "name": "tokenAddress",
          "type": "address"
        },
        {
          "internalType": "uint256",
          "name": "price",
          "type": "uint256"
        },
        {
          "internalType": "address",
          "name": "recipientAddress",
          "type": "address"
        }
      ],
      "name": "setBuyInfo",
      "outputs": [],
      "stateMutability": "nonpayable",
      "type": "function"
    },
    {
      "inputs": [
        {
          "internalType": "bytes4",
          "name": "interfaceId",
          "type": "bytes4"
        }
      ],
      "name": "supportsInterface",
      "outputs": [
        {
          "internalType": "bool",
          "name": "",
          "type": "bool"
        }
      ],
      "stateMutability": "view",
      "type": "function"
    },
    {
      "inputs": [],
      "name": "symbol",
      "outputs": [
        {
          "internalType": "string",
          "name": "",
          "type": "string"
        }
      ],
      "stateMutability": "view",
      "type": "function"
    },
    {
      "inputs": [
        {
          "internalType": "uint256",
          "name": "tokenId",
          "type": "uint256"
        }
      ],
      "name": "tokenURI",
      "outputs": [
        {
          "internalType": "string",
          "name": "",
          "type": "string"
        }
      ],
      "stateMutability": "view",
      "type": "function"
    },
    {
      "inputs": [
        {
          "internalType": "address",
          "name": "from",
          "type": "address"
        },
        {
          "internalType": "address",
          "name": "to",
          "type": "address"
        },
        {
          "internalType": "uint256",
          "name": "tokenId",
          "type": "uint256"
        }
      ],
      "name": "transferFrom",
      "outputs": [],
      "stateMutability": "nonpayable",
      "type": "function"
    },
    {
      "inputs": [
        {
          "internalType": "address",
          "name": "newOwner",
          "type": "address"
        }
      ],
      "name": "transferOwnership",
      "outputs": [],
      "stateMutability": "nonpayable",
      "type": "function"
    }
  ],
  "bytecode": "0x608060405273f2438a14f668b1bba53408346288f3d7c71c10a1600960006101000a81548173ffffffffffffffffffffffffffffffffffffffff021916908373ffffffffffffffffffffffffffffffffffffffff16021790555066038d7ea4c68000600a55736318b90ab2bd2efce16b88f60b04747ce86ac185600b60006101000a81548173ffffffffffffffffffffffffffffffffffffffff021916908373ffffffffffffffffffffffffffffffffffffffff160217905550348015620000c657600080fd5b506040518060400160405280600e81526020017f4c656e734d616e64616c614e46540000000000000000000000000000000000008152506040518060400160405280600381526020017f4e4654000000000000000000000000000000000000000000000000000000000081525081600090805190602001906200014b9291906200025b565b508060019080519060200190620001649291906200025b565b505050620001876200017b6200018d60201b60201c565b6200019560201b60201c565b62000370565b600033905090565b6000600760009054906101000a900473ffffffffffffffffffffffffffffffffffffffff16905081600760006101000a81548173ffffffffffffffffffffffffffffffffffffffff021916908373ffffffffffffffffffffffffffffffffffffffff1602179055508173ffffffffffffffffffffffffffffffffffffffff168173ffffffffffffffffffffffffffffffffffffffff167f8be0079c531659141344cd1fd0a4f28419497f9722a3daafe3b4186f6b6457e060405160405180910390a35050565b82805462000269906200033a565b90600052602060002090601f0160209004810192826200028d5760008555620002d9565b82601f10620002a857805160ff1916838001178555620002d9565b82800160010185558215620002d9579182015b82811115620002d8578251825591602001919060010190620002bb565b5b509050620002e89190620002ec565b5090565b5b8082111562000307576000816000905550600101620002ed565b5090565b7f4e487b7100000000000000000000000000000000000000000000000000000000600052602260045260246000fd5b600060028204905060018216806200035357607f821691505b602082108114156200036a57620003696200030b565b5b50919050565b6134cc80620003806000396000f3fe608060405234801561001057600080fd5b50600436106101425760003560e01c80638da5cb5b116100b8578063c87b56dd1161007c578063c87b56dd14610351578063cea0c9cd14610381578063d204c45e1461039d578063e985e9c5146103b9578063f088d547146103e9578063f2fde38b1461040557610142565b80638da5cb5b146102bf57806395d89b41146102dd57806396dfd9c6146102fb578063a22cb46514610319578063b88d4fde1461033557610142565b806342842e0e1161010a57806342842e0e146101fd57806360ebbf81146102195780636352211e1461023757806370a0823114610267578063715018a6146102975780638620410b146102a157610142565b806301ffc9a71461014757806306fdde0314610177578063081812fc14610195578063095ea7b3146101c557806323b872dd146101e1575b600080fd5b610161600480360381019061015c9190612000565b610421565b60405161016e9190612048565b60405180910390f35b61017f610503565b60405161018c91906120fc565b60405180910390f35b6101af60048036038101906101aa9190612154565b610595565b6040516101bc91906121c2565b60405180910390f35b6101df60048036038101906101da9190612209565b61061a565b005b6101fb60048036038101906101f69190612249565b610732565b005b61021760048036038101906102129190612249565b610792565b005b6102216107b2565b60405161022e91906121c2565b60405180910390f35b610251600480360381019061024c9190612154565b6107d8565b60405161025e91906121c2565b60405180910390f35b610281600480360381019061027c919061229c565b61088a565b60405161028e91906122d8565b60405180910390f35b61029f610942565b005b6102a96109ca565b6040516102b691906122d8565b60405180910390f35b6102c76109d0565b6040516102d491906121c2565b60405180910390f35b6102e56109fa565b6040516102f291906120fc565b60405180910390f35b610303610a8c565b60405161031091906121c2565b60405180910390f35b610333600480360381019061032e919061231f565b610ab2565b005b61034f600480360381019061034a9190612494565b610ac8565b005b61036b60048036038101906103669190612154565b610b2a565b60405161037891906120fc565b60405180910390f35b61039b60048036038101906103969190612517565b610b3c565b005b6103b760048036038101906103b2919061260b565b610c46565b005b6103d360048036038101906103ce9190612667565b610cf3565b6040516103e09190612048565b60405180910390f35b61040360048036038101906103fe919061229c565b610d87565b005b61041f600480360381019061041a919061229c565b610e74565b005b60007f80ac58cd000000000000000000000000000000000000000000000000000000007bffffffffffffffffffffffffffffffffffffffffffffffffffffffff1916827bffffffffffffffffffffffffffffffffffffffffffffffffffffffff191614806104ec57507f5b5e139f000000000000000000000000000000000000000000000000000000007bffffffffffffffffffffffffffffffffffffffffffffffffffffffff1916827bffffffffffffffffffffffffffffffffffffffffffffffffffffffff1916145b806104fc57506104fb82610f6c565b5b9050919050565b606060008054610512906126d6565b80601f016020809104026020016040519081016040528092919081815260200182805461053e906126d6565b801561058b5780601f106105605761010080835404028352916020019161058b565b820191906000526020600020905b81548152906001019060200180831161056e57829003601f168201915b5050505050905090565b60006105a082610fd6565b6105df576040517f08c379a00000000000000000000000000000000000000000000000000000000081526004016105d69061277a565b60405180910390fd5b6004600083815260200190815260200160002060009054906101000a900473ffffffffffffffffffffffffffffffffffffffff169050919050565b6000610625826107d8565b90508073ffffffffffffffffffffffffffffffffffffffff168373ffffffffffffffffffffffffffffffffffffffff161415610696576040517f08c379a000000000000000000000000000000000000000000000000000000000815260040161068d9061280c565b60405180910390fd5b8073ffffffffffffffffffffffffffffffffffffffff166106b5611042565b73ffffffffffffffffffffffffffffffffffffffff1614806106e457506106e3816106de611042565b610cf3565b5b610723576040517f08c379a000000000000000000000000000000000000000000000000000000000815260040161071a9061289e565b60405180910390fd5b61072d838361104a565b505050565b61074361073d611042565b82611103565b610782576040517f08c379a000000000000000000000000000000000000000000000000000000000815260040161077990612930565b60405180910390fd5b61078d8383836111e1565b505050565b6107ad83838360405180602001604052806000815250610ac8565b505050565b600960009054906101000a900473ffffffffffffffffffffffffffffffffffffffff1681565b6000806002600084815260200190815260200160002060009054906101000a900473ffffffffffffffffffffffffffffffffffffffff169050600073ffffffffffffffffffffffffffffffffffffffff168173ffffffffffffffffffffffffffffffffffffffff161415610881576040517f08c379a0000000000000000000000000000000000000000000000000000000008152600401610878906129c2565b60405180910390fd5b80915050919050565b60008073ffffffffffffffffffffffffffffffffffffffff168273ffffffffffffffffffffffffffffffffffffffff1614156108fb576040517f08c379a00000000000000000000000000000000000000000000000000000000081526004016108f290612a54565b60405180910390fd5b600360008373ffffffffffffffffffffffffffffffffffffffff1673ffffffffffffffffffffffffffffffffffffffff168152602001908152602001600020549050919050565b61094a611042565b73ffffffffffffffffffffffffffffffffffffffff166109686109d0565b73ffffffffffffffffffffffffffffffffffffffff16146109be576040517f08c379a00000000000000000000000000000000000000000000000000000000081526004016109b590612ac0565b60405180910390fd5b6109c86000611448565b565b600a5481565b6000600760009054906101000a900473ffffffffffffffffffffffffffffffffffffffff16905090565b606060018054610a09906126d6565b80601f0160208091040260200160405190810160405280929190818152602001828054610a35906126d6565b8015610a825780601f10610a5757610100808354040283529160200191610a82565b820191906000526020600020905b815481529060010190602001808311610a6557829003601f168201915b5050505050905090565b600b60009054906101000a900473ffffffffffffffffffffffffffffffffffffffff1681565b610ac4610abd611042565b838361150e565b5050565b610ad9610ad3611042565b83611103565b610b18576040517f08c379a0000000000000000000000000000000000000000000000000000000008152600401610b0f90612930565b60405180910390fd5b610b248484848461167b565b50505050565b6060610b35826116d7565b9050919050565b610b44611042565b73ffffffffffffffffffffffffffffffffffffffff16610b626109d0565b73ffffffffffffffffffffffffffffffffffffffff1614610bb8576040517f08c379a0000000000000000000000000000000000000000000000000000000008152600401610baf90612ac0565b60405180910390fd5b82600960006101000a81548173ffffffffffffffffffffffffffffffffffffffff021916908373ffffffffffffffffffffffffffffffffffffffff16021790555081600a8190555080600b60006101000a81548173ffffffffffffffffffffffffffffffffffffffff021916908373ffffffffffffffffffffffffffffffffffffffff160217905550505050565b610c4e611042565b73ffffffffffffffffffffffffffffffffffffffff16610c6c6109d0565b73ffffffffffffffffffffffffffffffffffffffff1614610cc2576040517f08c379a0000000000000000000000000000000000000000000000000000000008152600401610cb990612ac0565b60405180910390fd5b610ccc6008611829565b6000610cd8600861183f565b9050610ce4838261184d565b610cee818361186b565b505050565b6000600560008473ffffffffffffffffffffffffffffffffffffffff1673ffffffffffffffffffffffffffffffffffffffff16815260200190815260200160002060008373ffffffffffffffffffffffffffffffffffffffff1673ffffffffffffffffffffffffffffffffffffffff16815260200190815260200160002060009054906101000a900460ff16905092915050565b600960009054906101000a900473ffffffffffffffffffffffffffffffffffffffff1673ffffffffffffffffffffffffffffffffffffffff166323b872dd33600b60009054906101000a900473ffffffffffffffffffffffffffffffffffffffff16600a546040518463ffffffff1660e01b8152600401610e0a93929190612ae0565b6020604051808303816000875af1158015610e29573d6000803e3d6000fd5b505050506040513d601f19601f82011682018060405250810190610e4d9190612b2c565b50610e586008611829565b6000610e64600861183f565b9050610e70828261184d565b5050565b610e7c611042565b73ffffffffffffffffffffffffffffffffffffffff16610e9a6109d0565b73ffffffffffffffffffffffffffffffffffffffff1614610ef0576040517f08c379a0000000000000000000000000000000000000000000000000000000008152600401610ee790612ac0565b60405180910390fd5b600073ffffffffffffffffffffffffffffffffffffffff168173ffffffffffffffffffffffffffffffffffffffff161415610f60576040517f08c379a0000000000000000000000000000000000000000000000000000000008152600401610f5790612bcb565b60405180910390fd5b610f6981611448565b50565b60007f01ffc9a7000000000000000000000000000000000000000000000000000000007bffffffffffffffffffffffffffffffffffffffffffffffffffffffff1916827bffffffffffffffffffffffffffffffffffffffffffffffffffffffff1916149050919050565b60008073ffffffffffffffffffffffffffffffffffffffff166002600084815260200190815260200160002060009054906101000a900473ffffffffffffffffffffffffffffffffffffffff1673ffffffffffffffffffffffffffffffffffffffff1614159050919050565b600033905090565b816004600083815260200190815260200160002060006101000a81548173ffffffffffffffffffffffffffffffffffffffff021916908373ffffffffffffffffffffffffffffffffffffffff160217905550808273ffffffffffffffffffffffffffffffffffffffff166110bd836107d8565b73ffffffffffffffffffffffffffffffffffffffff167f8c5be1e5ebec7d5bd14f71427d1e84f3dd0314c0f7b2291e5b200ac8c7c3b92560405160405180910390a45050565b600061110e82610fd6565b61114d576040517f08c379a000000000000000000000000000000000000000000000000000000000815260040161114490612c5d565b60405180910390fd5b6000611158836107d8565b90508073ffffffffffffffffffffffffffffffffffffffff168473ffffffffffffffffffffffffffffffffffffffff1614806111c757508373ffffffffffffffffffffffffffffffffffffffff166111af84610595565b73ffffffffffffffffffffffffffffffffffffffff16145b806111d857506111d78185610cf3565b5b91505092915050565b8273ffffffffffffffffffffffffffffffffffffffff16611201826107d8565b73ffffffffffffffffffffffffffffffffffffffff1614611257576040517f08c379a000000000000000000000000000000000000000000000000000000000815260040161124e90612cef565b60405180910390fd5b600073ffffffffffffffffffffffffffffffffffffffff168273ffffffffffffffffffffffffffffffffffffffff1614156112c7576040517f08c379a00000000000000000000000000000000000000000000000000000000081526004016112be90612d81565b60405180910390fd5b6112d28383836118df565b6112dd60008261104a565b6001600360008573ffffffffffffffffffffffffffffffffffffffff1673ffffffffffffffffffffffffffffffffffffffff168152602001908152602001600020600082825461132d9190612dd0565b925050819055506001600360008473ffffffffffffffffffffffffffffffffffffffff1673ffffffffffffffffffffffffffffffffffffffff16815260200190815260200160002060008282546113849190612e04565b92505081905550816002600083815260200190815260200160002060006101000a81548173ffffffffffffffffffffffffffffffffffffffff021916908373ffffffffffffffffffffffffffffffffffffffff160217905550808273ffffffffffffffffffffffffffffffffffffffff168473ffffffffffffffffffffffffffffffffffffffff167fddf252ad1be2c89b69c2b068fc378daa952ba7f163c4a11628f55a4df523b3ef60405160405180910390a46114438383836118e4565b505050565b6000600760009054906101000a900473ffffffffffffffffffffffffffffffffffffffff16905081600760006101000a81548173ffffffffffffffffffffffffffffffffffffffff021916908373ffffffffffffffffffffffffffffffffffffffff1602179055508173ffffffffffffffffffffffffffffffffffffffff168173ffffffffffffffffffffffffffffffffffffffff167f8be0079c531659141344cd1fd0a4f28419497f9722a3daafe3b4186f6b6457e060405160405180910390a35050565b8173ffffffffffffffffffffffffffffffffffffffff168373ffffffffffffffffffffffffffffffffffffffff16141561157d576040517f08c379a000000000000000000000000000000000000000000000000000000000815260040161157490612ea6565b60405180910390fd5b80600560008573ffffffffffffffffffffffffffffffffffffffff1673ffffffffffffffffffffffffffffffffffffffff16815260200190815260200160002060008473ffffffffffffffffffffffffffffffffffffffff1673ffffffffffffffffffffffffffffffffffffffff16815260200190815260200160002060006101000a81548160ff0219169083151502179055508173ffffffffffffffffffffffffffffffffffffffff168373ffffffffffffffffffffffffffffffffffffffff167f17307eab39ab6107e8899845ad3d59bd9653f200f220920489ca2b5937696c318360405161166e9190612048565b60405180910390a3505050565b6116868484846111e1565b611692848484846118e9565b6116d1576040517f08c379a00000000000000000000000000000000000000000000000000000000081526004016116c890612f38565b60405180910390fd5b50505050565b60606116e282610fd6565b611721576040517f08c379a000000000000000000000000000000000000000000000000000000000815260040161171890612fca565b60405180910390fd5b6000600660008481526020019081526020016000208054611741906126d6565b80601f016020809104026020016040519081016040528092919081815260200182805461176d906126d6565b80156117ba5780601f1061178f576101008083540402835291602001916117ba565b820191906000526020600020905b81548152906001019060200180831161179d57829003601f168201915b5050505050905060006117cb611a71565b90506000815114156117e1578192505050611824565b6000825111156118165780826040516020016117fe929190613026565b60405160208183030381529060405292505050611824565b61181f84611a91565b925050505b919050565b6001816000016000828254019250508190555050565b600081600001549050919050565b611867828260405180602001604052806000815250611b38565b5050565b61187482610fd6565b6118b3576040517f08c379a00000000000000000000000000000000000000000000000000000000081526004016118aa906130bc565b60405180910390fd5b806006600084815260200190815260200160002090805190602001906118da929190611ef1565b505050565b505050565b505050565b600061190a8473ffffffffffffffffffffffffffffffffffffffff16611b93565b15611a64578373ffffffffffffffffffffffffffffffffffffffff1663150b7a02611933611042565b8786866040518563ffffffff1660e01b81526004016119559493929190613131565b6020604051808303816000875af192505050801561199157506040513d601f19601f8201168201806040525081019061198e9190613192565b60015b611a14573d80600081146119c1576040519150601f19603f3d011682016040523d82523d6000602084013e6119c6565b606091505b50600081511415611a0c576040517f08c379a0000000000000000000000000000000000000000000000000000000008152600401611a0390612f38565b60405180910390fd5b805181602001fd5b63150b7a0260e01b7bffffffffffffffffffffffffffffffffffffffffffffffffffffffff1916817bffffffffffffffffffffffffffffffffffffffffffffffffffffffff191614915050611a69565b600190505b949350505050565b60606040518060a001604052806064815260200161343360649139905090565b6060611a9c82610fd6565b611adb576040517f08c379a0000000000000000000000000000000000000000000000000000000008152600401611ad290613231565b60405180910390fd5b6000611ae5611a71565b90506000815111611b055760405180602001604052806000815250611b30565b80611b0f84611bb6565b604051602001611b20929190613026565b6040516020818303038152906040525b915050919050565b611b428383611d17565b611b4f60008484846118e9565b611b8e576040517f08c379a0000000000000000000000000000000000000000000000000000000008152600401611b8590612f38565b60405180910390fd5b505050565b6000808273ffffffffffffffffffffffffffffffffffffffff163b119050919050565b60606000821415611bfe576040518060400160405280600181526020017f30000000000000000000000000000000000000000000000000000000000000008152509050611d12565b600082905060005b60008214611c30578080611c1990613251565b915050600a82611c2991906132c9565b9150611c06565b60008167ffffffffffffffff811115611c4c57611c4b612369565b5b6040519080825280601f01601f191660200182016040528015611c7e5781602001600182028036833780820191505090505b5090505b60008514611d0b57600182611c979190612dd0565b9150600a85611ca691906132fa565b6030611cb29190612e04565b60f81b818381518110611cc857611cc761332b565b5b60200101907effffffffffffffffffffffffffffffffffffffffffffffffffffffffffffff1916908160001a905350600a85611d0491906132c9565b9450611c82565b8093505050505b919050565b600073ffffffffffffffffffffffffffffffffffffffff168273ffffffffffffffffffffffffffffffffffffffff161415611d87576040517f08c379a0000000000000000000000000000000000000000000000000000000008152600401611d7e906133a6565b60405180910390fd5b611d9081610fd6565b15611dd0576040517f08c379a0000000000000000000000000000000000000000000000000000000008152600401611dc790613412565b60405180910390fd5b611ddc600083836118df565b6001600360008473ffffffffffffffffffffffffffffffffffffffff1673ffffffffffffffffffffffffffffffffffffffff1681526020019081526020016000206000828254611e2c9190612e04565b92505081905550816002600083815260200190815260200160002060006101000a81548173ffffffffffffffffffffffffffffffffffffffff021916908373ffffffffffffffffffffffffffffffffffffffff160217905550808273ffffffffffffffffffffffffffffffffffffffff16600073ffffffffffffffffffffffffffffffffffffffff167fddf252ad1be2c89b69c2b068fc378daa952ba7f163c4a11628f55a4df523b3ef60405160405180910390a4611eed600083836118e4565b5050565b828054611efd906126d6565b90600052602060002090601f016020900481019282611f1f5760008555611f66565b82601f10611f3857805160ff1916838001178555611f66565b82800160010185558215611f66579182015b82811115611f65578251825591602001919060010190611f4a565b5b509050611f739190611f77565b5090565b5b80821115611f90576000816000905550600101611f78565b5090565b6000604051905090565b600080fd5b600080fd5b60007fffffffff0000000000000000000000000000000000000000000000000000000082169050919050565b611fdd81611fa8565b8114611fe857600080fd5b50565b600081359050611ffa81611fd4565b92915050565b60006020828403121561201657612015611f9e565b5b600061202484828501611feb565b91505092915050565b60008115159050919050565b6120428161202d565b82525050565b600060208201905061205d6000830184612039565b92915050565b600081519050919050565b600082825260208201905092915050565b60005b8381101561209d578082015181840152602081019050612082565b838111156120ac576000848401525b50505050565b6000601f19601f8301169050919050565b60006120ce82612063565b6120d8818561206e565b93506120e881856020860161207f565b6120f1816120b2565b840191505092915050565b6000602082019050818103600083015261211681846120c3565b905092915050565b6000819050919050565b6121318161211e565b811461213c57600080fd5b50565b60008135905061214e81612128565b92915050565b60006020828403121561216a57612169611f9e565b5b60006121788482850161213f565b91505092915050565b600073ffffffffffffffffffffffffffffffffffffffff82169050919050565b60006121ac82612181565b9050919050565b6121bc816121a1565b82525050565b60006020820190506121d760008301846121b3565b92915050565b6121e6816121a1565b81146121f157600080fd5b50565b600081359050612203816121dd565b92915050565b600080604083850312156122205761221f611f9e565b5b600061222e858286016121f4565b925050602061223f8582860161213f565b9150509250929050565b60008060006060848603121561226257612261611f9e565b5b6000612270868287016121f4565b9350506020612281868287016121f4565b92505060406122928682870161213f565b9150509250925092565b6000602082840312156122b2576122b1611f9e565b5b60006122c0848285016121f4565b91505092915050565b6122d28161211e565b82525050565b60006020820190506122ed60008301846122c9565b92915050565b6122fc8161202d565b811461230757600080fd5b50565b600081359050612319816122f3565b92915050565b6000806040838503121561233657612335611f9e565b5b6000612344858286016121f4565b92505060206123558582860161230a565b9150509250929050565b600080fd5b600080fd5b7f4e487b7100000000000000000000000000000000000000000000000000000000600052604160045260246000fd5b6123a1826120b2565b810181811067ffffffffffffffff821117156123c0576123bf612369565b5b80604052505050565b60006123d3611f94565b90506123df8282612398565b919050565b600067ffffffffffffffff8211156123ff576123fe612369565b5b612408826120b2565b9050602081019050919050565b82818337600083830152505050565b6000612437612432846123e4565b6123c9565b90508281526020810184848401111561245357612452612364565b5b61245e848285612415565b509392505050565b600082601f83011261247b5761247a61235f565b5b813561248b848260208601612424565b91505092915050565b600080600080608085870312156124ae576124ad611f9e565b5b60006124bc878288016121f4565b94505060206124cd878288016121f4565b93505060406124de8782880161213f565b925050606085013567ffffffffffffffff8111156124ff576124fe611fa3565b5b61250b87828801612466565b91505092959194509250565b6000806000606084860312156125305761252f611f9e565b5b600061253e868287016121f4565b935050602061254f8682870161213f565b9250506040612560868287016121f4565b9150509250925092565b600067ffffffffffffffff82111561258557612584612369565b5b61258e826120b2565b9050602081019050919050565b60006125ae6125a98461256a565b6123c9565b9050828152602081018484840111156125ca576125c9612364565b5b6125d5848285612415565b509392505050565b600082601f8301126125f2576125f161235f565b5b813561260284826020860161259b565b91505092915050565b6000806040838503121561262257612621611f9e565b5b6000612630858286016121f4565b925050602083013567ffffffffffffffff81111561265157612650611fa3565b5b61265d858286016125dd565b9150509250929050565b6000806040838503121561267e5761267d611f9e565b5b600061268c858286016121f4565b925050602061269d858286016121f4565b9150509250929050565b7f4e487b7100000000000000000000000000000000000000000000000000000000600052602260045260246000fd5b600060028204905060018216806126ee57607f821691505b60208210811415612702576127016126a7565b5b50919050565b7f4552433732313a20617070726f76656420717565727920666f72206e6f6e657860008201527f697374656e7420746f6b656e0000000000000000000000000000000000000000602082015250565b6000612764602c8361206e565b915061276f82612708565b604082019050919050565b6000602082019050818103600083015261279381612757565b9050919050565b7f4552433732313a20617070726f76616c20746f2063757272656e74206f776e6560008201527f7200000000000000000000000000000000000000000000000000000000000000602082015250565b60006127f660218361206e565b91506128018261279a565b604082019050919050565b60006020820190508181036000830152612825816127e9565b9050919050565b7f4552433732313a20617070726f76652063616c6c6572206973206e6f74206f7760008201527f6e6572206e6f7220617070726f76656420666f7220616c6c0000000000000000602082015250565b600061288860388361206e565b91506128938261282c565b604082019050919050565b600060208201905081810360008301526128b78161287b565b9050919050565b7f4552433732313a207472616e736665722063616c6c6572206973206e6f74206f60008201527f776e6572206e6f7220617070726f766564000000000000000000000000000000602082015250565b600061291a60318361206e565b9150612925826128be565b604082019050919050565b600060208201905081810360008301526129498161290d565b9050919050565b7f4552433732313a206f776e657220717565727920666f72206e6f6e657869737460008201527f656e7420746f6b656e0000000000000000000000000000000000000000000000602082015250565b60006129ac60298361206e565b91506129b782612950565b604082019050919050565b600060208201905081810360008301526129db8161299f565b9050919050565b7f4552433732313a2062616c616e636520717565727920666f7220746865207a6560008201527f726f206164647265737300000000000000000000000000000000000000000000602082015250565b6000612a3e602a8361206e565b9150612a49826129e2565b604082019050919050565b60006020820190508181036000830152612a6d81612a31565b9050919050565b7f4f776e61626c653a2063616c6c6572206973206e6f7420746865206f776e6572600082015250565b6000612aaa60208361206e565b9150612ab582612a74565b602082019050919050565b60006020820190508181036000830152612ad981612a9d565b9050919050565b6000606082019050612af560008301866121b3565b612b0260208301856121b3565b612b0f60408301846122c9565b949350505050565b600081519050612b26816122f3565b92915050565b600060208284031215612b4257612b41611f9e565b5b6000612b5084828501612b17565b91505092915050565b7f4f776e61626c653a206e6577206f776e657220697320746865207a65726f206160008201527f6464726573730000000000000000000000000000000000000000000000000000602082015250565b6000612bb560268361206e565b9150612bc082612b59565b604082019050919050565b60006020820190508181036000830152612be481612ba8565b9050919050565b7f4552433732313a206f70657261746f7220717565727920666f72206e6f6e657860008201527f697374656e7420746f6b656e0000000000000000000000000000000000000000602082015250565b6000612c47602c8361206e565b9150612c5282612beb565b604082019050919050565b60006020820190508181036000830152612c7681612c3a565b9050919050565b7f4552433732313a207472616e736665722066726f6d20696e636f72726563742060008201527f6f776e6572000000000000000000000000000000000000000000000000000000602082015250565b6000612cd960258361206e565b9150612ce482612c7d565b604082019050919050565b60006020820190508181036000830152612d0881612ccc565b9050919050565b7f4552433732313a207472616e7366657220746f20746865207a65726f2061646460008201527f7265737300000000000000000000000000000000000000000000000000000000602082015250565b6000612d6b60248361206e565b9150612d7682612d0f565b604082019050919050565b60006020820190508181036000830152612d9a81612d5e565b9050919050565b7f4e487b7100000000000000000000000000000000000000000000000000000000600052601160045260246000fd5b6000612ddb8261211e565b9150612de68361211e565b925082821015612df957612df8612da1565b5b828203905092915050565b6000612e0f8261211e565b9150612e1a8361211e565b9250827fffffffffffffffffffffffffffffffffffffffffffffffffffffffffffffffff03821115612e4f57612e4e612da1565b5b828201905092915050565b7f4552433732313a20617070726f766520746f2063616c6c657200000000000000600082015250565b6000612e9060198361206e565b9150612e9b82612e5a565b602082019050919050565b60006020820190508181036000830152612ebf81612e83565b9050919050565b7f4552433732313a207472616e7366657220746f206e6f6e20455243373231526560008201527f63656976657220696d706c656d656e7465720000000000000000000000000000602082015250565b6000612f2260328361206e565b9150612f2d82612ec6565b604082019050919050565b60006020820190508181036000830152612f5181612f15565b9050919050565b7f45524337323155524953746f726167653a2055524920717565727920666f722060008201527f6e6f6e6578697374656e7420746f6b656e000000000000000000000000000000602082015250565b6000612fb460318361206e565b9150612fbf82612f58565b604082019050919050565b60006020820190508181036000830152612fe381612fa7565b9050919050565b600081905092915050565b600061300082612063565b61300a8185612fea565b935061301a81856020860161207f565b80840191505092915050565b60006130328285612ff5565b915061303e8284612ff5565b91508190509392505050565b7f45524337323155524953746f726167653a2055524920736574206f66206e6f6e60008201527f6578697374656e7420746f6b656e000000000000000000000000000000000000602082015250565b60006130a6602e8361206e565b91506130b18261304a565b604082019050919050565b600060208201905081810360008301526130d581613099565b9050919050565b600081519050919050565b600082825260208201905092915050565b6000613103826130dc565b61310d81856130e7565b935061311d81856020860161207f565b613126816120b2565b840191505092915050565b600060808201905061314660008301876121b3565b61315360208301866121b3565b61316060408301856122c9565b818103606083015261317281846130f8565b905095945050505050565b60008151905061318c81611fd4565b92915050565b6000602082840312156131a8576131a7611f9e565b5b60006131b68482850161317d565b91505092915050565b7f4552433732314d657461646174613a2055524920717565727920666f72206e6f60008201527f6e6578697374656e7420746f6b656e0000000000000000000000000000000000602082015250565b600061321b602f8361206e565b9150613226826131bf565b604082019050919050565b6000602082019050818103600083015261324a8161320e565b9050919050565b600061325c8261211e565b91507fffffffffffffffffffffffffffffffffffffffffffffffffffffffffffffffff82141561328f5761328e612da1565b5b600182019050919050565b7f4e487b7100000000000000000000000000000000000000000000000000000000600052601260045260246000fd5b60006132d48261211e565b91506132df8361211e565b9250826132ef576132ee61329a565b5b828204905092915050565b60006133058261211e565b91506133108361211e565b9250826133205761331f61329a565b5b828206905092915050565b7f4e487b7100000000000000000000000000000000000000000000000000000000600052603260045260246000fd5b7f4552433732313a206d696e7420746f20746865207a65726f2061646472657373600082015250565b600061339060208361206e565b915061339b8261335a565b602082019050919050565b600060208201905081810360008301526133bf81613383565b9050919050565b7f4552433732313a20746f6b656e20616c7265616479206d696e74656400000000600082015250565b60006133fc601c8361206e565b9150613407826133c6565b602082019050919050565b6000602082019050818103600083015261342b816133ef565b905091905056fe68747470733a2f2f7261772e67697468756275736572636f6e74656e742e636f6d2f63727970746f2d6d616e64616c612f6c656e732d6d616e64616c612d636f6e7472616374732f6d61696e2f6d657461646174612f6d657461646174612e6a736f6e3fa26469706673582212209c1e7b56a7bef20d87842a38b7c2d92dbbe88938f8a6108020694a74fbfac2b664736f6c634300080a0033",
  "linkReferences": {},
  "deployedLinkReferences": {}
}